{
	"_format": "hh-sol-artifact-1",
	"contractName": "Domains",
	"sourceName": "contracts/Domains.sol",
	"abi": [
		{
			"inputs": [
				{
					"internalType": "string",
					"name": "_tld",
					"type": "string"
				}
			],
			"stateMutability": "payable",
			"type": "constructor"
		},
		{
			"inputs": [],
			"name": "AlreadyRegistered",
			"type": "error"
		},
		{
			"inputs": [
				{
					"internalType": "string",
					"name": "name",
					"type": "string"
				}
			],
			"name": "InvalidName",
			"type": "error"
		},
		{
			"inputs": [],
			"name": "Unauthorized",
			"type": "error"
		},
		{
			"anonymous": false,
			"inputs": [
				{
					"indexed": true,
					"internalType": "address",
					"name": "owner",
					"type": "address"
				},
				{
					"indexed": true,
					"internalType": "address",
					"name": "approved",
					"type": "address"
				},
				{
					"indexed": true,
					"internalType": "uint256",
					"name": "tokenId",
					"type": "uint256"
				}
			],
			"name": "Approval",
			"type": "event"
		},
		{
			"anonymous": false,
			"inputs": [
				{
					"indexed": true,
					"internalType": "address",
					"name": "owner",
					"type": "address"
				},
				{
					"indexed": true,
					"internalType": "address",
					"name": "operator",
					"type": "address"
				},
				{
					"indexed": false,
					"internalType": "bool",
					"name": "approved",
					"type": "bool"
				}
			],
			"name": "ApprovalForAll",
			"type": "event"
		},
		{
			"anonymous": false,
			"inputs": [
				{
					"indexed": true,
					"internalType": "address",
					"name": "from",
					"type": "address"
				},
				{
					"indexed": true,
					"internalType": "address",
					"name": "to",
					"type": "address"
				},
				{
					"indexed": true,
					"internalType": "uint256",
					"name": "tokenId",
					"type": "uint256"
				}
			],
			"name": "Transfer",
			"type": "event"
		},
		{
			"inputs": [
				{
					"internalType": "address",
					"name": "to",
					"type": "address"
				},
				{
					"internalType": "uint256",
					"name": "tokenId",
					"type": "uint256"
				}
			],
			"name": "approve",
			"outputs": [],
			"stateMutability": "nonpayable",
			"type": "function"
		},
		{
			"inputs": [
				{
					"internalType": "address",
					"name": "owner",
					"type": "address"
				}
			],
			"name": "balanceOf",
			"outputs": [
				{
					"internalType": "uint256",
					"name": "",
					"type": "uint256"
				}
			],
			"stateMutability": "view",
			"type": "function"
		},
		{
			"inputs": [
				{
					"internalType": "string",
					"name": "",
					"type": "string"
				}
			],
			"name": "domainIds",
			"outputs": [
				{
					"internalType": "uint256",
					"name": "",
					"type": "uint256"
				}
			],
			"stateMutability": "view",
			"type": "function"
		},
		{
			"inputs": [
				{
					"internalType": "string",
					"name": "",
					"type": "string"
				}
			],
			"name": "domains",
			"outputs": [
				{
					"internalType": "address",
					"name": "",
					"type": "address"
				}
			],
			"stateMutability": "view",
			"type": "function"
		},
		{
			"inputs": [
				{
					"internalType": "string",
					"name": "name",
					"type": "string"
				}
			],
			"name": "getAddress",
			"outputs": [
				{
					"internalType": "address",
					"name": "",
					"type": "address"
				}
			],
			"stateMutability": "view",
			"type": "function"
		},
		{
			"inputs": [],
			"name": "getAllNames",
			"outputs": [
				{
					"internalType": "string[]",
					"name": "",
					"type": "string[]"
				}
			],
			"stateMutability": "view",
			"type": "function"
		},
		{
			"inputs": [
				{
					"internalType": "uint256",
					"name": "tokenId",
					"type": "uint256"
				}
			],
			"name": "getApproved",
			"outputs": [
				{
					"internalType": "address",
					"name": "",
					"type": "address"
				}
			],
			"stateMutability": "view",
			"type": "function"
		},
		{
			"inputs": [
				{
					"internalType": "string",
					"name": "name",
					"type": "string"
				}
			],
			"name": "getDomainId",
			"outputs": [
				{
					"internalType": "uint256",
					"name": "",
					"type": "uint256"
				}
			],
			"stateMutability": "view",
			"type": "function"
		},
		{
			"inputs": [
				{
					"internalType": "string",
					"name": "name",
					"type": "string"
				}
			],
			"name": "getRecord",
			"outputs": [
				{
					"internalType": "string",
					"name": "",
					"type": "string"
				}
			],
			"stateMutability": "view",
			"type": "function"
		},
		{
			"inputs": [
				{
					"internalType": "string",
					"name": "_str",
					"type": "string"
				}
			],
			"name": "getStrLen",
			"outputs": [
				{
					"internalType": "uint256",
					"name": "",
					"type": "uint256"
				}
			],
			"stateMutability": "pure",
			"type": "function"
		},
		{
			"inputs": [],
			"name": "getTotalDomains",
			"outputs": [
				{
					"internalType": "uint256",
					"name": "",
					"type": "uint256"
				}
			],
			"stateMutability": "view",
			"type": "function"
		},
		{
			"inputs": [],
			"name": "getTotalFunds",
			"outputs": [
				{
					"internalType": "uint256",
					"name": "",
					"type": "uint256"
				}
			],
			"stateMutability": "view",
			"type": "function"
		},
		{
			"inputs": [
				{
					"internalType": "address",
					"name": "owner",
					"type": "address"
				},
				{
					"internalType": "address",
					"name": "operator",
					"type": "address"
				}
			],
			"name": "isApprovedForAll",
			"outputs": [
				{
					"internalType": "bool",
					"name": "",
					"type": "bool"
				}
			],
			"stateMutability": "view",
			"type": "function"
		},
		{
			"inputs": [],
			"name": "isOwner",
			"outputs": [
				{
					"internalType": "bool",
					"name": "",
					"type": "bool"
				}
			],
			"stateMutability": "view",
			"type": "function"
		},
		{
			"inputs": [],
			"name": "name",
			"outputs": [
				{
					"internalType": "string",
					"name": "",
					"type": "string"
				}
			],
			"stateMutability": "view",
			"type": "function"
		},
		{
			"inputs": [
				{
					"internalType": "uint256",
					"name": "",
					"type": "uint256"
				}
			],
			"name": "names",
			"outputs": [
				{
					"internalType": "string",
					"name": "",
					"type": "string"
				}
			],
			"stateMutability": "view",
			"type": "function"
		},
		{
			"inputs": [],
			"name": "owner",
			"outputs": [
				{
					"internalType": "address payable",
					"name": "",
					"type": "address"
				}
			],
			"stateMutability": "view",
			"type": "function"
		},
		{
			"inputs": [
				{
					"internalType": "uint256",
					"name": "tokenId",
					"type": "uint256"
				}
			],
			"name": "ownerOf",
			"outputs": [
				{
					"internalType": "address",
					"name": "",
					"type": "address"
				}
			],
			"stateMutability": "view",
			"type": "function"
		},
		{
			"inputs": [
				{
					"internalType": "string",
					"name": "name",
					"type": "string"
				}
			],
			"name": "price",
			"outputs": [
				{
					"internalType": "uint256",
					"name": "",
					"type": "uint256"
				}
			],
			"stateMutability": "pure",
			"type": "function"
		},
		{
			"inputs": [
				{
					"internalType": "string",
					"name": "",
					"type": "string"
				}
			],
			"name": "records",
			"outputs": [
				{
					"internalType": "string",
					"name": "",
					"type": "string"
				}
			],
			"stateMutability": "view",
			"type": "function"
		},
		{
			"inputs": [
				{
					"internalType": "string",
					"name": "name",
					"type": "string"
				}
			],
			"name": "register",
			"outputs": [],
			"stateMutability": "payable",
			"type": "function"
		},
		{
			"inputs": [
				{
					"internalType": "address",
					"name": "from",
					"type": "address"
				},
				{
					"internalType": "address",
					"name": "to",
					"type": "address"
				},
				{
					"internalType": "uint256",
					"name": "tokenId",
					"type": "uint256"
				}
			],
			"name": "safeTransferFrom",
			"outputs": [],
			"stateMutability": "nonpayable",
			"type": "function"
		},
		{
			"inputs": [
				{
					"internalType": "address",
					"name": "from",
					"type": "address"
				},
				{
					"internalType": "address",
					"name": "to",
					"type": "address"
				},
				{
					"internalType": "uint256",
					"name": "tokenId",
					"type": "uint256"
				},
				{
					"internalType": "bytes",
					"name": "_data",
					"type": "bytes"
				}
			],
			"name": "safeTransferFrom",
			"outputs": [],
			"stateMutability": "nonpayable",
			"type": "function"
		},
		{
			"inputs": [
				{
					"internalType": "address",
					"name": "operator",
					"type": "address"
				},
				{
					"internalType": "bool",
					"name": "approved",
					"type": "bool"
				}
			],
			"name": "setApprovalForAll",
			"outputs": [],
			"stateMutability": "nonpayable",
			"type": "function"
		},
		{
			"inputs": [
				{
					"internalType": "string",
					"name": "name",
					"type": "string"
				},
				{
					"internalType": "string",
					"name": "record",
					"type": "string"
				}
			],
			"name": "setRecord",
			"outputs": [],
			"stateMutability": "nonpayable",
			"type": "function"
		},
		{
			"inputs": [
				{
					"internalType": "bytes4",
					"name": "interfaceId",
					"type": "bytes4"
				}
			],
			"name": "supportsInterface",
			"outputs": [
				{
					"internalType": "bool",
					"name": "",
					"type": "bool"
				}
			],
			"stateMutability": "view",
			"type": "function"
		},
		{
			"inputs": [],
			"name": "symbol",
			"outputs": [
				{
					"internalType": "string",
					"name": "",
					"type": "string"
				}
			],
			"stateMutability": "view",
			"type": "function"
		},
		{
			"inputs": [],
			"name": "tld",
			"outputs": [
				{
					"internalType": "string",
					"name": "",
					"type": "string"
				}
			],
			"stateMutability": "view",
			"type": "function"
		},
		{
			"inputs": [
				{
					"internalType": "uint256",
					"name": "tokenId",
					"type": "uint256"
				}
			],
			"name": "tokenURI",
			"outputs": [
				{
					"internalType": "string",
					"name": "",
					"type": "string"
				}
			],
			"stateMutability": "view",
			"type": "function"
		},
		{
			"inputs": [],
			"name": "totalDomains",
			"outputs": [
				{
					"internalType": "uint256",
					"name": "",
					"type": "uint256"
				}
			],
			"stateMutability": "view",
			"type": "function"
		},
		{
			"inputs": [
				{
					"internalType": "address",
					"name": "from",
					"type": "address"
				},
				{
					"internalType": "address",
					"name": "to",
					"type": "address"
				},
				{
					"internalType": "uint256",
					"name": "tokenId",
					"type": "uint256"
				}
			],
			"name": "transferFrom",
			"outputs": [],
			"stateMutability": "nonpayable",
			"type": "function"
		},
		{
			"inputs": [
				{
					"internalType": "string",
					"name": "name",
					"type": "string"
				}
			],
			"name": "valid",
			"outputs": [
				{
					"internalType": "bool",
					"name": "",
					"type": "bool"
				}
			],
			"stateMutability": "pure",
			"type": "function"
		},
		{
			"inputs": [],
			"name": "withdraw",
			"outputs": [],
			"stateMutability": "nonpayable",
			"type": "function"
		}
	],
	"bytecode": "0x6080604052604051806103e001604052806103bc8152602001620059b06103bc9139600b9080519060200190620000389291906200034d565b506040518060600160405280603d8152602001620057bc603d9139600c90805190602001906200006a9291906200034d565b50604051806101c0016040528061019681526020016200581a6101969139600d90805190602001906200009f9291906200034d565b506040518060800160405280605c815260200162005d6c605c9139600e9080519060200190620000d19291906200034d565b506040518060400160405280601181526020017f3c2f746578743e3c2f673e3c2f7376673e000000000000000000000000000000815250600f90805190602001906200011f9291906200034d565b5060405162005dc838038062005dc883398181016040528101906200014591906200046f565b6040518060400160405280601381526020017f546f726f20446f6d61696e2053657276696365000000000000000000000000008152506040518060400160405280600381526020017f54445300000000000000000000000000000000000000000000000000000000008152508160009080519060200190620001c99291906200034d565b508060019080519060200190620001e29291906200034d565b50505033600860006101000a81548173ffffffffffffffffffffffffffffffffffffffff021916908373ffffffffffffffffffffffffffffffffffffffff16021790555080600a90805190602001906200023e9291906200034d565b506200026f604051806060016040528060218152602001620057f960219139826200027e60201b62001e8f1760201c565b600160078190555050620006bc565b62000320828260405160240162000297929190620004f5565b6040516020818303038152906040527f4b5c4277000000000000000000000000000000000000000000000000000000007bffffffffffffffffffffffffffffffffffffffffffffffffffffffff19166020820180517bffffffffffffffffffffffffffffffffffffffffffffffffffffffff83818316178352505050506200032460201b60201c565b5050565b60008151905060006a636f6e736f6c652e6c6f679050602083016000808483855afa5050505050565b8280546200035b90620005e1565b90600052602060002090601f0160209004810192826200037f5760008555620003cb565b82601f106200039a57805160ff1916838001178555620003cb565b82800160010185558215620003cb579182015b82811115620003ca578251825591602001919060010190620003ad565b5b509050620003da9190620003de565b5090565b5b80821115620003f9576000816000905550600101620003df565b5090565b6000620004146200040e8462000559565b62000530565b9050828152602081018484840111156200042d57600080fd5b6200043a848285620005ab565b509392505050565b600082601f8301126200045457600080fd5b815162000466848260208601620003fd565b91505092915050565b6000602082840312156200048257600080fd5b600082015167ffffffffffffffff8111156200049d57600080fd5b620004ab8482850162000442565b91505092915050565b6000620004c1826200058f565b620004cd81856200059a565b9350620004df818560208601620005ab565b620004ea81620006ab565b840191505092915050565b60006040820190508181036000830152620005118185620004b4565b90508181036020830152620005278184620004b4565b90509392505050565b60006200053c6200054f565b90506200054a828262000617565b919050565b6000604051905090565b600067ffffffffffffffff8211156200057757620005766200067c565b5b6200058282620006ab565b9050602081019050919050565b600081519050919050565b600082825260208201905092915050565b60005b83811015620005cb578082015181840152602081019050620005ae565b83811115620005db576000848401525b50505050565b60006002820490506001821680620005fa57607f821691505b602082108114156200061157620006106200064d565b5b50919050565b6200062282620006ab565b810181811067ffffffffffffffff821117156200064457620006436200067c565b5b80604052505050565b7f4e487b7100000000000000000000000000000000000000000000000000000000600052602260045260246000fd5b7f4e487b7100000000000000000000000000000000000000000000000000000000600052604160045260246000fd5b6000601f19601f8301169050919050565b6150f080620006cc6000396000f3fe6080604052600436106101ee5760003560e01c80638da5cb5b1161010d578063c1880a98116100a0578063e985e9c51161006f578063e985e9c514610783578063eb8bbd28146107c0578063f2c298be146107eb578063fb825e5f14610807578063fe2c619814610832576101ee565b8063c1880a98146106b5578063c87b56dd146106de578063cb931bac1461071b578063cbcb678514610758576101ee565b8063a22cb465116100dc578063a22cb465146105fb578063a2a6916614610624578063b88d4fde1461064f578063bf40fac114610678576101ee565b80638da5cb5b1461053d5780638f32d59b1461056857806395d89b41146105935780639791c097146105be576101ee565b80633ccfd60b116101855780635e8441d3116101545780635e8441d3146104495780636352211e1461048657806370a08231146104c357806388920f5c14610500576101ee565b80633ccfd60b1461038f57806342842e0e146103a65780634622ab03146103cf578063541e771d1461040c576101ee565b806311dd8845116101c157806311dd8845146102c157806323b872dd146102fe57806326449235146103275780632d55143214610364576101ee565b806301ffc9a7146101f357806306fdde0314610230578063081812fc1461025b578063095ea7b314610298575b600080fd5b3480156101ff57600080fd5b5061021a60048036038101906102159190613775565b61086f565b6040516102279190614132565b60405180910390f35b34801561023c57600080fd5b50610245610951565b6040516102529190614171565b60405180910390f35b34801561026757600080fd5b50610282600480360381019061027d91906138c2565b6109e3565b60405161028f919061408e565b60405180910390f35b3480156102a457600080fd5b506102bf60048036038101906102ba9190613739565b610a68565b005b3480156102cd57600080fd5b506102e860048036038101906102e391906137c7565b610b80565b6040516102f59190614171565b60405180910390f35b34801561030a57600080fd5b5061032560048036038101906103209190613633565b610c33565b005b34801561033357600080fd5b5061034e60048036038101906103499190613881565b610c93565b60405161035b919061408e565b60405180910390f35b34801561037057600080fd5b50610379610cdc565b6040516103869190614171565b60405180910390f35b34801561039b57600080fd5b506103a4610d6a565b005b3480156103b257600080fd5b506103cd60048036038101906103c89190613633565b610e30565b005b3480156103db57600080fd5b506103f660048036038101906103f191906138c2565b610e50565b6040516104039190614171565b60405180910390f35b34801561041857600080fd5b50610433600480360381019061042e9190613881565b610ef0565b6040516104409190614171565b60405180910390f35b34801561045557600080fd5b50610470600480360381019061046b91906137c7565b610fa6565b60405161047d91906144d9565b60405180910390f35b34801561049257600080fd5b506104ad60048036038101906104a891906138c2565b610fd1565b6040516104ba919061408e565b60405180910390f35b3480156104cf57600080fd5b506104ea60048036038101906104e591906135ce565b611083565b6040516104f791906144d9565b60405180910390f35b34801561050c57600080fd5b5061052760048036038101906105229190613881565b61113b565b60405161053491906144d9565b60405180910390f35b34801561054957600080fd5b50610552611169565b60405161055f91906140a9565b60405180910390f35b34801561057457600080fd5b5061057d61118f565b60405161058a9190614132565b60405180910390f35b34801561059f57600080fd5b506105a86111e7565b6040516105b59190614171565b60405180910390f35b3480156105ca57600080fd5b506105e560048036038101906105e091906137c7565b611279565b6040516105f29190614132565b60405180910390f35b34801561060757600080fd5b50610622600480360381019061061d91906136fd565b61132d565b005b34801561063057600080fd5b50610639611343565b60405161064691906144d9565b60405180910390f35b34801561065b57600080fd5b5061067660048036038101906106719190613682565b61134d565b005b34801561068457600080fd5b5061069f600480360381019061069a91906137c7565b6113af565b6040516106ac919061408e565b60405180910390f35b3480156106c157600080fd5b506106dc60048036038101906106d7919061380c565b6113fa565b005b3480156106ea57600080fd5b50610705600480360381019061070091906138c2565b6114d5565b6040516107129190614171565b60405180910390f35b34801561072757600080fd5b50610742600480360381019061073d9190613881565b611627565b60405161074f91906144d9565b60405180910390f35b34801561076457600080fd5b5061076d611637565b60405161077a91906144d9565b60405180910390f35b34801561078f57600080fd5b506107aa60048036038101906107a591906135f7565b61163d565b6040516107b79190614132565b60405180910390f35b3480156107cc57600080fd5b506107d56116d1565b6040516107e291906144d9565b60405180910390f35b610805600480360381019061080091906137c7565b6116d9565b005b34801561081357600080fd5b5061081c611bcf565b6040516108299190614110565b60405180910390f35b34801561083e57600080fd5b50610859600480360381019061085491906137c7565b611e1f565b60405161086691906144d9565b60405180910390f35b60007f80ac58cd000000000000000000000000000000000000000000000000000000007bffffffffffffffffffffffffffffffffffffffffffffffffffffffff1916827bffffffffffffffffffffffffffffffffffffffffffffffffffffffff1916148061093a57507f5b5e139f000000000000000000000000000000000000000000000000000000007bffffffffffffffffffffffffffffffffffffffffffffffffffffffff1916827bffffffffffffffffffffffffffffffffffffffffffffffffffffffff1916145b8061094a575061094982611f2b565b5b9050919050565b60606000805461096090614805565b80601f016020809104026020016040519081016040528092919081815260200182805461098c90614805565b80156109d95780601f106109ae576101008083540402835291602001916109d9565b820191906000526020600020905b8154815290600101906020018083116109bc57829003601f168201915b5050505050905090565b60006109ee82611f95565b610a2d576040517f08c379a0000000000000000000000000000000000000000000000000000000008152600401610a2490614459565b60405180910390fd5b6004600083815260200190815260200160002060009054906101000a900473ffffffffffffffffffffffffffffffffffffffff169050919050565b6000610a7382610fd1565b90508073ffffffffffffffffffffffffffffffffffffffff168373ffffffffffffffffffffffffffffffffffffffff161415610ae4576040517f08c379a0000000000000000000000000000000000000000000000000000000008152600401610adb90614499565b60405180910390fd5b8073ffffffffffffffffffffffffffffffffffffffff16610b03612001565b73ffffffffffffffffffffffffffffffffffffffff161480610b325750610b3181610b2c612001565b61163d565b5b610b71576040517f08c379a0000000000000000000000000000000000000000000000000000000008152600401610b6890614399565b60405180910390fd5b610b7b8383612009565b505050565b606060138383604051610b94929190613eeb565b90815260200160405180910390208054610bad90614805565b80601f0160208091040260200160405190810160405280929190818152602001828054610bd990614805565b8015610c265780601f10610bfb57610100808354040283529160200191610c26565b820191906000526020600020905b815481529060010190602001808311610c0957829003601f168201915b5050505050905092915050565b610c44610c3e612001565b826120c2565b610c83576040517f08c379a0000000000000000000000000000000000000000000000000000000008152600401610c7a906144b9565b60405180910390fd5b610c8e8383836121a0565b505050565b6011818051602081018201805184825260208301602085012081835280955050505050506000915054906101000a900473ffffffffffffffffffffffffffffffffffffffff1681565b600a8054610ce990614805565b80601f0160208091040260200160405190810160405280929190818152602001828054610d1590614805565b8015610d625780601f10610d3757610100808354040283529160200191610d62565b820191906000526020600020905b815481529060010190602001808311610d4557829003601f168201915b505050505081565b610d7261118f565b610d7b57600080fd5b600047905060003373ffffffffffffffffffffffffffffffffffffffff1682604051610da690614057565b60006040518083038185875af1925050503d8060008114610de3576040519150601f19603f3d011682016040523d82523d6000602084013e610de8565b606091505b5050905080610e2c576040517f08c379a0000000000000000000000000000000000000000000000000000000008152600401610e2390614359565b60405180910390fd5b5050565b610e4b8383836040518060200160405280600081525061134d565b505050565b60106020528060005260406000206000915090508054610e6f90614805565b80601f0160208091040260200160405190810160405280929190818152602001828054610e9b90614805565b8015610ee85780601f10610ebd57610100808354040283529160200191610ee8565b820191906000526020600020905b815481529060010190602001808311610ecb57829003601f168201915b505050505081565b6013818051602081018201805184825260208301602085012081835280955050505050506000915090508054610f2590614805565b80601f0160208091040260200160405190810160405280929190818152602001828054610f5190614805565b8015610f9e5780601f10610f7357610100808354040283529160200191610f9e565b820191906000526020600020905b815481529060010190602001808311610f8157829003601f168201915b505050505081565b600060128383604051610fba929190613eeb565b908152602001604051809103902054905092915050565b6000806002600084815260200190815260200160002060009054906101000a900473ffffffffffffffffffffffffffffffffffffffff169050600073ffffffffffffffffffffffffffffffffffffffff168173ffffffffffffffffffffffffffffffffffffffff16141561107a576040517f08c379a0000000000000000000000000000000000000000000000000000000008152600401611071906143d9565b60405180910390fd5b80915050919050565b60008073ffffffffffffffffffffffffffffffffffffffff168273ffffffffffffffffffffffffffffffffffffffff1614156110f4576040517f08c379a00000000000000000000000000000000000000000000000000000000081526004016110eb906143b9565b60405180910390fd5b600360008373ffffffffffffffffffffffffffffffffffffffff1673ffffffffffffffffffffffffffffffffffffffff168152602001908152602001600020549050919050565b6012818051602081018201805184825260208301602085012081835280955050505050506000915090505481565b600860009054906101000a900473ffffffffffffffffffffffffffffffffffffffff1681565b6000600860009054906101000a900473ffffffffffffffffffffffffffffffffffffffff1673ffffffffffffffffffffffffffffffffffffffff163373ffffffffffffffffffffffffffffffffffffffff1614905090565b6060600180546111f690614805565b80601f016020809104026020016040519081016040528092919081815260200182805461122290614805565b801561126f5780601f106112445761010080835404028352916020019161126f565b820191906000526020600020905b81548152906001019060200180831161125257829003601f168201915b5050505050905090565b600060036112ca84848080601f016020809104026020016040519081016040528093929190818152602001838380828437600081840152601f19601f82011690508083019250505050505050612407565b101580156113255750601961132284848080601f016020809104026020016040519081016040528093929190818152602001838380828437600081840152601f19601f82011690508083019250505050505050612407565b11155b905092915050565b61133f611338612001565b83836125e2565b5050565b6000600754905090565b61135e611358612001565b836120c2565b61139d576040517f08c379a0000000000000000000000000000000000000000000000000000000008152600401611394906144b9565b60405180910390fd5b6113a98484848461274f565b50505050565b6000601183836040516113c3929190613eeb565b908152602001604051809103902060009054906101000a900473ffffffffffffffffffffffffffffffffffffffff16905092915050565b6011848460405161140c929190613eeb565b908152602001604051809103902060009054906101000a900473ffffffffffffffffffffffffffffffffffffffff1673ffffffffffffffffffffffffffffffffffffffff163373ffffffffffffffffffffffffffffffffffffffff161461149f576040517f82b4290000000000000000000000000000000000000000000000000000000000815260040160405180910390fd5b8181601386866040516114b3929190613eeb565b908152602001604051809103902091906114ce929190613322565b5050505050565b60606114e082611f95565b61151f576040517f08c379a000000000000000000000000000000000000000000000000000000000815260040161151690614439565b60405180910390fd5b600060066000848152602001908152602001600020805461153f90614805565b80601f016020809104026020016040519081016040528092919081815260200182805461156b90614805565b80156115b85780601f1061158d576101008083540402835291602001916115b8565b820191906000526020600020905b81548152906001019060200180831161159b57829003601f168201915b5050505050905060006115c96127ab565b90506000815114156115df578192505050611622565b6000825111156116145780826040516020016115fc929190613f35565b60405160208183030381529060405292505050611622565b61161d846127c2565b925050505b919050565b6000808251905080915050919050565b60075481565b6000600560008473ffffffffffffffffffffffffffffffffffffffff1673ffffffffffffffffffffffffffffffffffffffff16815260200190815260200160002060008373ffffffffffffffffffffffffffffffffffffffff1673ffffffffffffffffffffffffffffffffffffffff16815260200190815260200160002060009054906101000a900460ff16905092915050565b600047905090565b6116e38282611279565b6117265781816040517f7f19f48d00000000000000000000000000000000000000000000000000000000815260040161171d92919061414d565b60405180910390fd5b600073ffffffffffffffffffffffffffffffffffffffff1660118383604051611750929190613eeb565b908152602001604051809103902060009054906101000a900473ffffffffffffffffffffffffffffffffffffffff1673ffffffffffffffffffffffffffffffffffffffff16146117cc576040517f3a81d6fc00000000000000000000000000000000000000000000000000000000815260040160405180910390fd5b60006117d88383611e1f565b90508034101561181d576040517f08c379a000000000000000000000000000000000000000000000000000000000815260040161181490614299565b60405180910390fd5b60006118296009612869565b9050600061187a85858080601f016020809104026020016040519081016040528093929190818152602001838380828437600081840152601f19601f82011690508083019250505050505050612407565b9050600061188782612877565b905061197b60405180606001604052806031815260200161504a6031913987878080601f016020809104026020016040519081016040528093929190818152602001838380828437600081840152601f19601f82011690508083019250505050505050600a80546118f790614805565b80601f016020809104026020016040519081016040528092919081815260200182805461192390614805565b80156119705780601f1061194557610100808354040283529160200191611970565b820191906000526020600020905b81548152906001019060200180831161195357829003601f168201915b505050505086612a24565b60008686600a60405160200161199393929190613f04565b604051602081830303815290604052905060006119af85612877565b6040516020016119bf919061406c565b60405160208183030381529060405290506000600b82600c84600d87600e89600f6040516020016119f899989796959493929190613f59565b60405160208183030381529060405290506000611a3f84611a1884612ac6565b87604051602001611a2b93929190613fd8565b604051602081830303815290604052612ac6565b9050600081604051602001611a549190614035565b6040516020818303038152906040529050611aa46040518060400160405280601481526020017f46696e616c20546f6b656e555249206973203a2000000000000000000000000081525082611e8f565b611aae3389612c84565b611ab88882612ca2565b3360118c8c604051611acb929190613eeb565b908152602001604051809103902060006101000a81548173ffffffffffffffffffffffffffffffffffffffff021916908373ffffffffffffffffffffffffffffffffffffffff160217905550611b566040518060400160405280601b81526020017f2573206861732072656769737465726564206120646f6d61696e21000000000081525033612d16565b8a8a601060008b81526020019081526020016000209190611b78929190613322565b50600160076000828254611b8c9190614628565b925050819055508760128c8c604051611ba6929190613eeb565b908152602001604051809103902081905550611bc26009612db2565b5050505050505050505050565b6060611c0f6040518060400160405280601f81526020017f47657474696e6720616c6c206e616d65732066726f6d20636f6e747261637400815250612dc8565b6000611c1b6009612869565b67ffffffffffffffff811115611c5a577f4e487b7100000000000000000000000000000000000000000000000000000000600052604160045260246000fd5b604051908082528060200260200182016040528015611c8d57816020015b6060815260200190600190039081611c785790505b50905060005b611c9d6009612869565b811015611e1757601060008281526020019081526020016000208054611cc290614805565b80601f0160208091040260200160405190810160405280929190818152602001828054611cee90614805565b8015611d3b5780601f10611d1057610100808354040283529160200191611d3b565b820191906000526020600020905b815481529060010190602001808311611d1e57829003601f168201915b5050505050828281518110611d79577f4e487b7100000000000000000000000000000000000000000000000000000000600052603260045260246000fd5b6020026020010181905250611e046040518060400160405280601781526020017f4e616d6520666f7220746f6b656e20256420697320257300000000000000000081525082848481518110611df7577f4e487b7100000000000000000000000000000000000000000000000000000000600052603260045260246000fd5b6020026020010151612e61565b8080611e0f90614868565b915050611c93565b508091505090565b600080611e6f84848080601f016020809104026020016040519081016040528093929190818152602001838380828437600081840152601f19601f82011690508083019250505050505050612407565b905060008111611e7e57600080fd5b662386f26fc1000091505092915050565b611f278282604051602401611ea59291906141c3565b6040516020818303038152906040527f4b5c4277000000000000000000000000000000000000000000000000000000007bffffffffffffffffffffffffffffffffffffffffffffffffffffffff19166020820180517bffffffffffffffffffffffffffffffffffffffffffffffffffffffff8381831617835250505050612f00565b5050565b60007f01ffc9a7000000000000000000000000000000000000000000000000000000007bffffffffffffffffffffffffffffffffffffffffffffffffffffffff1916827bffffffffffffffffffffffffffffffffffffffffffffffffffffffff1916149050919050565b60008073ffffffffffffffffffffffffffffffffffffffff166002600084815260200190815260200160002060009054906101000a900473ffffffffffffffffffffffffffffffffffffffff1673ffffffffffffffffffffffffffffffffffffffff1614159050919050565b600033905090565b816004600083815260200190815260200160002060006101000a81548173ffffffffffffffffffffffffffffffffffffffff021916908373ffffffffffffffffffffffffffffffffffffffff160217905550808273ffffffffffffffffffffffffffffffffffffffff1661207c83610fd1565b73ffffffffffffffffffffffffffffffffffffffff167f8c5be1e5ebec7d5bd14f71427d1e84f3dd0314c0f7b2291e5b200ac8c7c3b92560405160405180910390a45050565b60006120cd82611f95565b61210c576040517f08c379a000000000000000000000000000000000000000000000000000000000815260040161210390614379565b60405180910390fd5b600061211783610fd1565b90508073ffffffffffffffffffffffffffffffffffffffff168473ffffffffffffffffffffffffffffffffffffffff16148061218657508373ffffffffffffffffffffffffffffffffffffffff1661216e846109e3565b73ffffffffffffffffffffffffffffffffffffffff16145b806121975750612196818561163d565b5b91505092915050565b8273ffffffffffffffffffffffffffffffffffffffff166121c082610fd1565b73ffffffffffffffffffffffffffffffffffffffff1614612216576040517f08c379a000000000000000000000000000000000000000000000000000000000815260040161220d906142d9565b60405180910390fd5b600073ffffffffffffffffffffffffffffffffffffffff168273ffffffffffffffffffffffffffffffffffffffff161415612286576040517f08c379a000000000000000000000000000000000000000000000000000000000815260040161227d90614319565b60405180910390fd5b612291838383612f29565b61229c600082612009565b6001600360008573ffffffffffffffffffffffffffffffffffffffff1673ffffffffffffffffffffffffffffffffffffffff16815260200190815260200160002060008282546122ec9190614709565b925050819055506001600360008473ffffffffffffffffffffffffffffffffffffffff1673ffffffffffffffffffffffffffffffffffffffff16815260200190815260200160002060008282546123439190614628565b92505081905550816002600083815260200190815260200160002060006101000a81548173ffffffffffffffffffffffffffffffffffffffff021916908373ffffffffffffffffffffffffffffffffffffffff160217905550808273ffffffffffffffffffffffffffffffffffffffff168473ffffffffffffffffffffffffffffffffffffffff167fddf252ad1be2c89b69c2b068fc378daa952ba7f163c4a11628f55a4df523b3ef60405160405180910390a4612402838383612f2e565b505050565b60008060008084519050600092505b808210156125d7576000858381518110612459577f4e487b7100000000000000000000000000000000000000000000000000000000600052603260045260246000fd5b602001015160f81c60f81b9050608060f81b817effffffffffffffffffffffffffffffffffffffffffffffffffffffffffffff191610156124a8576001836124a19190614628565b92506125c3565b60e060f81b817effffffffffffffffffffffffffffffffffffffffffffffffffffffffffffff191610156124ea576002836124e39190614628565b92506125c2565b60f060f81b817effffffffffffffffffffffffffffffffffffffffffffffffffffffffffffff1916101561252c576003836125259190614628565b92506125c1565b60f8801b817effffffffffffffffffffffffffffffffffffffffffffffffffffffffffffff1916101561256d576004836125669190614628565b92506125c0565b60fc60f81b817effffffffffffffffffffffffffffffffffffffffffffffffffffffffffffff191610156125af576005836125a89190614628565b92506125bf565b6006836125bc9190614628565b92505b5b5b5b5b5082806125cf90614868565b935050612416565b829350505050919050565b8173ffffffffffffffffffffffffffffffffffffffff168373ffffffffffffffffffffffffffffffffffffffff161415612651576040517f08c379a000000000000000000000000000000000000000000000000000000000815260040161264890614339565b60405180910390fd5b80600560008573ffffffffffffffffffffffffffffffffffffffff1673ffffffffffffffffffffffffffffffffffffffff16815260200190815260200160002060008473ffffffffffffffffffffffffffffffffffffffff1673ffffffffffffffffffffffffffffffffffffffff16815260200190815260200160002060006101000a81548160ff0219169083151502179055508173ffffffffffffffffffffffffffffffffffffffff168373ffffffffffffffffffffffffffffffffffffffff167f17307eab39ab6107e8899845ad3d59bd9653f200f220920489ca2b5937696c31836040516127429190614132565b60405180910390a3505050565b61275a8484846121a0565b61276684848484612f33565b6127a5576040517f08c379a000000000000000000000000000000000000000000000000000000000815260040161279c906142b9565b60405180910390fd5b50505050565b606060405180602001604052806000815250905090565b60606127cd82611f95565b61280c576040517f08c379a000000000000000000000000000000000000000000000000000000000815260040161280390614479565b60405180910390fd5b60006128166127ab565b905060008151116128365760405180602001604052806000815250612861565b8061284084612877565b604051602001612851929190613f35565b6040516020818303038152906040525b915050919050565b600081600001549050919050565b606060008214156128bf576040518060400160405280600181526020017f30000000000000000000000000000000000000000000000000000000000000008152509050612a1f565b600082905060005b600082146128f15780806128da90614868565b915050600a826128ea919061467e565b91506128c7565b60008167ffffffffffffffff811115612933577f4e487b7100000000000000000000000000000000000000000000000000000000600052604160045260246000fd5b6040519080825280601f01601f1916602001820160405280156129655781602001600182028036833780820191505090505b5090505b60008514612a185760018261297e9190614709565b9150600a8561298d91906148b1565b60306129999190614628565b60f81b8183815181106129d5577f4e487b7100000000000000000000000000000000000000000000000000000000600052603260045260246000fd5b60200101907effffffffffffffffffffffffffffffffffffffffffffffffffffffffffffff1916908160001a905350600a85612a11919061467e565b9450612969565b8093505050505b919050565b612ac084848484604051602401612a3e94939291906141fa565b6040516020818303038152906040527f9fd009f5000000000000000000000000000000000000000000000000000000007bffffffffffffffffffffffffffffffffffffffffffffffffffffffff19166020820180517bffffffffffffffffffffffffffffffffffffffffffffffffffffffff8381831617835250505050612f00565b50505050565b60606000825190506000811415612aef5760405180602001604052806000815250915050612c7f565b60006003600283612b009190614628565b612b0a919061467e565b6004612b1691906146af565b90506000602082612b279190614628565b67ffffffffffffffff811115612b66577f4e487b7100000000000000000000000000000000000000000000000000000000600052604160045260246000fd5b6040519080825280601f01601f191660200182016040528015612b985781602001600182028036833780820191505090505b509050600060405180606001604052806040815260200161507b604091399050600181016020830160005b86811015612c3c5760038101905062ffffff818a015116603f8160121c168401518060081b905060ff603f83600c1c1686015116810190508060081b905060ff603f8360061c1686015116810190508060081b905060ff603f831686015116810190508060e01b90508084526004840193505050612bc3565b506003860660018114612c565760028114612c6657612c71565b613d3d60f01b6002830352612c71565b603d60f81b60018303525b508484525050819450505050505b919050565b612c9e8282604051806020016040528060008152506130ca565b5050565b612cab82611f95565b612cea576040517f08c379a0000000000000000000000000000000000000000000000000000000008152600401612ce1906143f9565b60405180910390fd5b80600660008481526020019081526020016000209080519060200190612d119291906133a8565b505050565b612dae8282604051602401612d2c929190614193565b6040516020818303038152906040527f319af333000000000000000000000000000000000000000000000000000000007bffffffffffffffffffffffffffffffffffffffffffffffffffffffff19166020820180517bffffffffffffffffffffffffffffffffffffffffffffffffffffffff8381831617835250505050612f00565b5050565b6001816000016000828254019250508190555050565b612e5e81604051602401612ddc9190614171565b6040516020818303038152906040527f41304fac000000000000000000000000000000000000000000000000000000007bffffffffffffffffffffffffffffffffffffffffffffffffffffffff19166020820180517bffffffffffffffffffffffffffffffffffffffffffffffffffffffff8381831617835250505050612f00565b50565b612efb838383604051602401612e7993929190614254565b6040516020818303038152906040527fa3f5c739000000000000000000000000000000000000000000000000000000007bffffffffffffffffffffffffffffffffffffffffffffffffffffffff19166020820180517bffffffffffffffffffffffffffffffffffffffffffffffffffffffff8381831617835250505050612f00565b505050565b60008151905060006a636f6e736f6c652e6c6f679050602083016000808483855afa5050505050565b505050565b505050565b6000612f548473ffffffffffffffffffffffffffffffffffffffff16613125565b156130bd578373ffffffffffffffffffffffffffffffffffffffff1663150b7a02612f7d612001565b8786866040518563ffffffff1660e01b8152600401612f9f94939291906140c4565b602060405180830381600087803b158015612fb957600080fd5b505af1925050508015612fea57506040513d601f19601f82011682018060405250810190612fe7919061379e565b60015b61306d573d806000811461301a576040519150601f19603f3d011682016040523d82523d6000602084013e61301f565b606091505b50600081511415613065576040517f08c379a000000000000000000000000000000000000000000000000000000000815260040161305c906142b9565b60405180910390fd5b805181602001fd5b63150b7a0260e01b7bffffffffffffffffffffffffffffffffffffffffffffffffffffffff1916817bffffffffffffffffffffffffffffffffffffffffffffffffffffffff1916149150506130c2565b600190505b949350505050565b6130d48383613148565b6130e16000848484612f33565b613120576040517f08c379a0000000000000000000000000000000000000000000000000000000008152600401613117906142b9565b60405180910390fd5b505050565b6000808273ffffffffffffffffffffffffffffffffffffffff163b119050919050565b600073ffffffffffffffffffffffffffffffffffffffff168273ffffffffffffffffffffffffffffffffffffffff1614156131b8576040517f08c379a00000000000000000000000000000000000000000000000000000000081526004016131af90614419565b60405180910390fd5b6131c181611f95565b15613201576040517f08c379a00000000000000000000000000000000000000000000000000000000081526004016131f8906142f9565b60405180910390fd5b61320d60008383612f29565b6001600360008473ffffffffffffffffffffffffffffffffffffffff1673ffffffffffffffffffffffffffffffffffffffff168152602001908152602001600020600082825461325d9190614628565b92505081905550816002600083815260200190815260200160002060006101000a81548173ffffffffffffffffffffffffffffffffffffffff021916908373ffffffffffffffffffffffffffffffffffffffff160217905550808273ffffffffffffffffffffffffffffffffffffffff16600073ffffffffffffffffffffffffffffffffffffffff167fddf252ad1be2c89b69c2b068fc378daa952ba7f163c4a11628f55a4df523b3ef60405160405180910390a461331e60008383612f2e565b5050565b82805461332e90614805565b90600052602060002090601f0160209004810192826133505760008555613397565b82601f1061336957803560ff1916838001178555613397565b82800160010185558215613397579182015b8281111561339657823582559160200191906001019061337b565b5b5090506133a4919061342e565b5090565b8280546133b490614805565b90600052602060002090601f0160209004810192826133d6576000855561341d565b82601f106133ef57805160ff191683800117855561341d565b8280016001018555821561341d579182015b8281111561341c578251825591602001919060010190613401565b5b50905061342a919061342e565b5090565b5b8082111561344757600081600090555060010161342f565b5090565b600061345e61345984614519565b6144f4565b90508281526020810184848401111561347657600080fd5b6134818482856147c3565b509392505050565b600061349c6134978461454a565b6144f4565b9050828152602081018484840111156134b457600080fd5b6134bf8482856147c3565b509392505050565b6000813590506134d681614fed565b92915050565b6000813590506134eb81615004565b92915050565b6000813590506135008161501b565b92915050565b6000815190506135158161501b565b92915050565b600082601f83011261352c57600080fd5b813561353c84826020860161344b565b91505092915050565b60008083601f84011261355757600080fd5b8235905067ffffffffffffffff81111561357057600080fd5b60208301915083600182028301111561358857600080fd5b9250929050565b600082601f8301126135a057600080fd5b81356135b0848260208601613489565b91505092915050565b6000813590506135c881615032565b92915050565b6000602082840312156135e057600080fd5b60006135ee848285016134c7565b91505092915050565b6000806040838503121561360a57600080fd5b6000613618858286016134c7565b9250506020613629858286016134c7565b9150509250929050565b60008060006060848603121561364857600080fd5b6000613656868287016134c7565b9350506020613667868287016134c7565b9250506040613678868287016135b9565b9150509250925092565b6000806000806080858703121561369857600080fd5b60006136a6878288016134c7565b94505060206136b7878288016134c7565b93505060406136c8878288016135b9565b925050606085013567ffffffffffffffff8111156136e557600080fd5b6136f18782880161351b565b91505092959194509250565b6000806040838503121561371057600080fd5b600061371e858286016134c7565b925050602061372f858286016134dc565b9150509250929050565b6000806040838503121561374c57600080fd5b600061375a858286016134c7565b925050602061376b858286016135b9565b9150509250929050565b60006020828403121561378757600080fd5b6000613795848285016134f1565b91505092915050565b6000602082840312156137b057600080fd5b60006137be84828501613506565b91505092915050565b600080602083850312156137da57600080fd5b600083013567ffffffffffffffff8111156137f457600080fd5b61380085828601613545565b92509250509250929050565b6000806000806040858703121561382257600080fd5b600085013567ffffffffffffffff81111561383c57600080fd5b61384887828801613545565b9450945050602085013567ffffffffffffffff81111561386757600080fd5b61387387828801613545565b925092505092959194509250565b60006020828403121561389357600080fd5b600082013567ffffffffffffffff8111156138ad57600080fd5b6138b98482850161358f565b91505092915050565b6000602082840312156138d457600080fd5b60006138e2848285016135b9565b91505092915050565b60006138f78383613a2c565b905092915050565b6139088161474f565b82525050565b6139178161473d565b82525050565b6000613928826145a0565b61393281856145ce565b9350836020820285016139448561457b565b8060005b85811015613980578484038952815161396185826138eb565b945061396c836145c1565b925060208a01995050600181019050613948565b50829750879550505050505092915050565b61399b81614761565b82525050565b60006139ac826145ab565b6139b681856145df565b93506139c68185602086016147d2565b6139cf8161499e565b840191505092915050565b60006139e6838561460c565b93506139f38385846147c3565b6139fc8361499e565b840190509392505050565b6000613a13838561461d565b9350613a208385846147c3565b82840190509392505050565b6000613a37826145b6565b613a4181856145fb565b9350613a518185602086016147d2565b613a5a8161499e565b840191505092915050565b6000613a70826145b6565b613a7a818561460c565b9350613a8a8185602086016147d2565b613a938161499e565b840191505092915050565b6000613aa9826145b6565b613ab3818561461d565b9350613ac38185602086016147d2565b80840191505092915050565b60008154613adc81614805565b613ae6818661461d565b94506001821660008114613b015760018114613b1257613b45565b60ff19831686528186019350613b45565b613b1b8561458b565b60005b83811015613b3d57815481890152600182019150602081019050613b1e565b838801955050505b50505092915050565b6000613b5b60168361460c565b9150613b66826149af565b602082019050919050565b6000613b7e60328361460c565b9150613b89826149d8565b604082019050919050565b6000613ba160258361460c565b9150613bac82614a27565b604082019050919050565b6000613bc4601c8361460c565b9150613bcf82614a76565b602082019050919050565b6000613be760248361460c565b9150613bf282614a9f565b604082019050919050565b6000613c0a60198361460c565b9150613c1582614aee565b602082019050919050565b6000613c2d60188361460c565b9150613c3882614b17565b602082019050919050565b6000613c50602c8361460c565b9150613c5b82614b40565b604082019050919050565b6000613c7360388361460c565b9150613c7e82614b8f565b604082019050919050565b6000613c9660018361461d565b9150613ca182614bde565b600182019050919050565b6000613cb9602a8361460c565b9150613cc482614c07565b604082019050919050565b6000613cdc60298361460c565b9150613ce782614c56565b604082019050919050565b6000613cff602e8361460c565b9150613d0a82614ca5565b604082019050919050565b6000613d2260028361461d565b9150613d2d82614cf4565b600282019050919050565b6000613d4560208361460c565b9150613d5082614d1d565b602082019050919050565b6000613d6860318361460c565b9150613d7382614d46565b604082019050919050565b6000613d8b602c8361460c565b9150613d9682614d95565b604082019050919050565b6000613dae604d8361461d565b9150613db982614de4565b604d82019050919050565b6000613dd1602f8361460c565b9150613ddc82614e59565b604082019050919050565b6000613df4600a8361461d565b9150613dff82614ea8565b600a82019050919050565b6000613e1760218361460c565b9150613e2282614ed1565b604082019050919050565b6000613e3a601d8361461d565b9150613e4582614f20565b601d82019050919050565b6000613e5d600c8361461d565b9150613e6882614f49565b600c82019050919050565b6000613e806000836145f0565b9150613e8b82614f72565b600082019050919050565b6000613ea360318361460c565b9150613eae82614f75565b604082019050919050565b6000613ec6600b8361461d565b9150613ed182614fc4565b600b82019050919050565b613ee5816147b9565b82525050565b6000613ef8828486613a07565b91508190509392505050565b6000613f11828587613a07565b9150613f1c82613c89565b9150613f288284613acf565b9150819050949350505050565b6000613f418285613a9e565b9150613f4d8284613a9e565b91508190509392505050565b6000613f65828c613acf565b9150613f71828b613a9e565b9150613f7d828a613acf565b9150613f898289613a9e565b9150613f958288613acf565b9150613fa18287613a9e565b9150613fad8286613acf565b9150613fb98285613a9e565b9150613fc58284613acf565b91508190509a9950505050505050505050565b6000613fe382613de7565b9150613fef8286613a9e565b9150613ffa82613da1565b91506140068285613a9e565b915061401182613e50565b915061401d8284613a9e565b915061402882613d15565b9150819050949350505050565b600061404082613e2d565b915061404c8284613a9e565b915081905092915050565b600061406282613e73565b9150819050919050565b600061407782613eb9565b91506140838284613a9e565b915081905092915050565b60006020820190506140a3600083018461390e565b92915050565b60006020820190506140be60008301846138ff565b92915050565b60006080820190506140d9600083018761390e565b6140e6602083018661390e565b6140f36040830185613edc565b818103606083015261410581846139a1565b905095945050505050565b6000602082019050818103600083015261412a818461391d565b905092915050565b60006020820190506141476000830184613992565b92915050565b600060208201905081810360008301526141688184866139da565b90509392505050565b6000602082019050818103600083015261418b8184613a65565b905092915050565b600060408201905081810360008301526141ad8185613a65565b90506141bc602083018461390e565b9392505050565b600060408201905081810360008301526141dd8185613a65565b905081810360208301526141f18184613a65565b90509392505050565b600060808201905081810360008301526142148187613a65565b905081810360208301526142288186613a65565b9050818103604083015261423c8185613a65565b905061424b6060830184613edc565b95945050505050565b6000606082019050818103600083015261426e8186613a65565b905061427d6020830185613edc565b818103604083015261428f8184613a65565b9050949350505050565b600060208201905081810360008301526142b281613b4e565b9050919050565b600060208201905081810360008301526142d281613b71565b9050919050565b600060208201905081810360008301526142f281613b94565b9050919050565b6000602082019050818103600083015261431281613bb7565b9050919050565b6000602082019050818103600083015261433281613bda565b9050919050565b6000602082019050818103600083015261435281613bfd565b9050919050565b6000602082019050818103600083015261437281613c20565b9050919050565b6000602082019050818103600083015261439281613c43565b9050919050565b600060208201905081810360008301526143b281613c66565b9050919050565b600060208201905081810360008301526143d281613cac565b9050919050565b600060208201905081810360008301526143f281613ccf565b9050919050565b6000602082019050818103600083015261441281613cf2565b9050919050565b6000602082019050818103600083015261443281613d38565b9050919050565b6000602082019050818103600083015261445281613d5b565b9050919050565b6000602082019050818103600083015261447281613d7e565b9050919050565b6000602082019050818103600083015261449281613dc4565b9050919050565b600060208201905081810360008301526144b281613e0a565b9050919050565b600060208201905081810360008301526144d281613e96565b9050919050565b60006020820190506144ee6000830184613edc565b92915050565b60006144fe61450f565b905061450a8282614837565b919050565b6000604051905090565b600067ffffffffffffffff8211156145345761453361496f565b5b61453d8261499e565b9050602081019050919050565b600067ffffffffffffffff8211156145655761456461496f565b5b61456e8261499e565b9050602081019050919050565b6000819050602082019050919050565b60008190508160005260206000209050919050565b600081519050919050565b600081519050919050565b600081519050919050565b6000602082019050919050565b600082825260208201905092915050565b600082825260208201905092915050565b600081905092915050565b600082825260208201905092915050565b600082825260208201905092915050565b600081905092915050565b6000614633826147b9565b915061463e836147b9565b9250827fffffffffffffffffffffffffffffffffffffffffffffffffffffffffffffffff03821115614673576146726148e2565b5b828201905092915050565b6000614689826147b9565b9150614694836147b9565b9250826146a4576146a3614911565b5b828204905092915050565b60006146ba826147b9565b91506146c5836147b9565b9250817fffffffffffffffffffffffffffffffffffffffffffffffffffffffffffffffff04831182151516156146fe576146fd6148e2565b5b828202905092915050565b6000614714826147b9565b915061471f836147b9565b925082821015614732576147316148e2565b5b828203905092915050565b600061474882614799565b9050919050565b600061475a82614799565b9050919050565b60008115159050919050565b60007fffffffff0000000000000000000000000000000000000000000000000000000082169050919050565b600073ffffffffffffffffffffffffffffffffffffffff82169050919050565b6000819050919050565b82818337600083830152505050565b60005b838110156147f05780820151818401526020810190506147d5565b838111156147ff576000848401525b50505050565b6000600282049050600182168061481d57607f821691505b6020821081141561483157614830614940565b5b50919050565b6148408261499e565b810181811067ffffffffffffffff8211171561485f5761485e61496f565b5b80604052505050565b6000614873826147b9565b91507fffffffffffffffffffffffffffffffffffffffffffffffffffffffffffffffff8214156148a6576148a56148e2565b5b600182019050919050565b60006148bc826147b9565b91506148c7836147b9565b9250826148d7576148d6614911565b5b828206905092915050565b7f4e487b7100000000000000000000000000000000000000000000000000000000600052601160045260246000fd5b7f4e487b7100000000000000000000000000000000000000000000000000000000600052601260045260246000fd5b7f4e487b7100000000000000000000000000000000000000000000000000000000600052602260045260246000fd5b7f4e487b7100000000000000000000000000000000000000000000000000000000600052604160045260246000fd5b6000601f19601f8301169050919050565b7f4e6f7420456e6f756768204d6174696320506169642100000000000000000000600082015250565b7f4552433732313a207472616e7366657220746f206e6f6e20455243373231526560008201527f63656976657220696d706c656d656e7465720000000000000000000000000000602082015250565b7f4552433732313a207472616e736665722066726f6d20696e636f72726563742060008201527f6f776e6572000000000000000000000000000000000000000000000000000000602082015250565b7f4552433732313a20746f6b656e20616c7265616479206d696e74656400000000600082015250565b7f4552433732313a207472616e7366657220746f20746865207a65726f2061646460008201527f7265737300000000000000000000000000000000000000000000000000000000602082015250565b7f4552433732313a20617070726f766520746f2063616c6c657200000000000000600082015250565b7f4661696c656420746f207769746864726177204d617469630000000000000000600082015250565b7f4552433732313a206f70657261746f7220717565727920666f72206e6f6e657860008201527f697374656e7420746f6b656e0000000000000000000000000000000000000000602082015250565b7f4552433732313a20617070726f76652063616c6c6572206973206e6f74206f7760008201527f6e6572206e6f7220617070726f76656420666f7220616c6c0000000000000000602082015250565b7f2e00000000000000000000000000000000000000000000000000000000000000600082015250565b7f4552433732313a2062616c616e636520717565727920666f7220746865207a6560008201527f726f206164647265737300000000000000000000000000000000000000000000602082015250565b7f4552433732313a206f776e657220717565727920666f72206e6f6e657869737460008201527f656e7420746f6b656e0000000000000000000000000000000000000000000000602082015250565b7f45524337323155524953746f726167653a2055524920736574206f66206e6f6e60008201527f6578697374656e7420746f6b656e000000000000000000000000000000000000602082015250565b7f227d000000000000000000000000000000000000000000000000000000000000600082015250565b7f4552433732313a206d696e7420746f20746865207a65726f2061646472657373600082015250565b7f45524337323155524953746f726167653a2055524920717565727920666f722060008201527f6e6f6e6578697374656e7420746f6b656e000000000000000000000000000000602082015250565b7f4552433732313a20617070726f76656420717565727920666f72206e6f6e657860008201527f697374656e7420746f6b656e0000000000000000000000000000000000000000602082015250565b7f222c20226465736372697074696f6e223a2022546f726f20446f6d61696e205360008201527f657276696365222c2022696d616765223a2022646174613a696d6167652f737660208201527f672b786d6c3b6261736536342c00000000000000000000000000000000000000604082015250565b7f4552433732314d657461646174613a2055524920717565727920666f72206e6f60008201527f6e6578697374656e7420746f6b656e0000000000000000000000000000000000602082015250565b7f7b226e616d65223a202200000000000000000000000000000000000000000000600082015250565b7f4552433732313a20617070726f76616c20746f2063757272656e74206f776e6560008201527f7200000000000000000000000000000000000000000000000000000000000000602082015250565b7f646174613a6170706c69636174696f6e2f6a736f6e3b6261736536342c000000600082015250565b7f222c226c656e677468223a220000000000000000000000000000000000000000600082015250565b50565b7f4552433732313a207472616e736665722063616c6c6572206973206e6f74206f60008201527f776e6572206e6f7220617070726f766564000000000000000000000000000000602082015250565b7f546f726f446f6d61696e23000000000000000000000000000000000000000000600082015250565b614ff68161473d565b811461500157600080fd5b50565b61500d81614761565b811461501857600080fd5b50565b6150248161476d565b811461502f57600080fd5b50565b61503b816147b9565b811461504657600080fd5b5056fe5265676973746572696e672025732e2573206f6e2074686520636f6e7472616374207769746820746f6b656e49442025644142434445464748494a4b4c4d4e4f505152535455565758595a6162636465666768696a6b6c6d6e6f707172737475767778797a303132333435363738392b2fa2646970667358221220bf18b52ae06068eb6d2c8e386f8464f47c31ccbf6c652aabfce40bd025bbca2c64736f6c634300080400333c2f746578743e3c7465787420636c6173733d22636c732d3322207472616e73666f726d3d227472616e736c61746528343020313032382e383829223e2573206e616d65207365727669636520686173206265656e206465706c6f7965643c2f746578743e3c7465787420636c6173733d22636c732d3422207472616e73666f726d3d227472616e736c617465283337312e3133203231302e383129223e40746f746f72756c6c613c2f746578743e3c7465787420636c6173733d22636c732d3522207472616e73666f726d3d227472616e736c617465283336382e3133203230372e383129223e40746f746f72756c6c613c2f746578743e3c7465787420636c6173733d22636c732d3622207472616e73666f726d3d227472616e736c617465283132392e3537203132362e373329223e546f726f20446f6d61696e20536572766963653c2f746578743e3c7465787420636c6173733d22636c732d3722207472616e73666f726d3d227472616e736c617465283132362e3537203132332e373329223e546f726f20446f6d61696e20536572766963653c2f746578743e3c7465787420783d223530252220746578742d616e63686f723d226d6964646c652220636c6173733d22636c732d3822207472616e73666f726d3d227472616e736c6174652832332e3236203536342e353629223e3c73766720786d6c6e733d22687474703a2f2f7777772e77332e6f72672f323030302f7376672220786d6c6e733a786c696e6b3d22687474703a2f2f7777772e77332e6f72672f313939392f786c696e6b222076696577426f783d2230203020313038302031303830223e3c646566733e3c7374796c653e2e636c732d317b66696c6c3a75726c28236c696e6561722d6772616469656e74293b7d2e636c732d322c2e636c732d337b666f6e742d73697a653a34392e383270783b7d2e636c732d322c2e636c732d332c2e636c732d342c2e636c732d352c2e636c732d362c2e636c732d372c2e636c732d382c2e636c732d397b666f6e742d66616d696c793a4672616e6b6c696e476f746869632d48656176792c204672616e6b6c696e20476f746869632048656176793b666f6e742d7765696768743a3830303b7d2e636c732d332c2e636c732d352c2e636c732d372c2e636c732d397b66696c6c3a236666663b7d2e636c732d342c2e636c732d357b666f6e742d73697a653a37302e393170783b7d2e636c732d362c2e636c732d377b666f6e742d73697a653a38362e303670783b7d2e636c732d382c2e636c732d397b666f6e742d73697a653a36352e303670783b7d3c2f7374796c653e3c6c696e6561724772616469656e742069643d226c696e6561722d6772616469656e74222078313d2231303830222079313d2231303830222078323d223022206772616469656e74556e6974733d227573657253706163654f6e557365223e3c73746f70206f66667365743d2230222073746f702d636f6c6f723d2223613531666630222f3e3c73746f70206f66667365743d2231222073746f702d636f6c6f723d2223323064346636222f3e3c2f6c696e6561724772616469656e743e3c2f646566733e3c672069643d2266696e616c2d6772616469656e74223e3c7265637420636c6173733d22636c732d31222077696474683d223130383022206865696768743d2231303830222f3e3c2f673e3c672069643d2266696e616c2d74657874223e3c7465787420636c6173733d22636c732d3222207472616e73666f726d3d227472616e736c617465283738372e393220313033312e383829223e2373746179544f524f3c2f746578743e3c7465787420636c6173733d22636c732d3322207472616e73666f726d3d227472616e736c617465283738342e393220313032382e383829223e2373746179544f524f3c2f746578743e3c7465787420636c6173733d22636c732d3222207472616e73666f726d3d227472616e736c61746528343320313033312e383829223e3c2f746578743e3c7465787420783d223530252220746578742d616e63686f723d226d6964646c652220636c6173733d22636c732d3922207472616e73666f726d3d227472616e736c6174652832302e3236203536312e353629223e",
	"linkReferences": {},
	"deployedLinkReferences": {}
}